:020000040000FA
:100000002019001001030000090300000B03000089
:100010000D0300000F0300001103000000000000AA
:10002000000000000000000000000000FD010000D2
:10003000150300000000000075020000B10200007E
:100040001B0300001B0300001B0300001B03000038
:100050001B0300001B0300001B0300001B03000028
:100060001B0300001B0300001B0300001B03000018
:100070001B030000F91A00001B03000065230000A9
:100080001B0300001B0300001B0300001B030000F8
:100090001B0300001B0300001B0300001B030000E8
:1000A0001B0300001B0300003D0500001B030000B4
:1000B0001B0300001B0300001B0300001B030000C8
:1000C0001B0300001B0300001B03000000F002F8EC
:1000D00000F03FF80AA090E8000C82448344AAF1A3
:1000E0000107DA4501D100F034F8AFF2090EBAE8A1
:1000F0000F0013F0010F18BFFB1A43F0010318475C
:10010000206A0000406A0000103A24BF78C878C115
:10011000FAD8520724BF30C830C144BF04680C600D
:10012000704700000023002400250026103A28BF55
:1001300078C1FBD8520728BF30C148BF0B60704759
:10014000732900F0B881002070471FB51FBD10B59E
:1001500010BD00F0BBF91146FFF7F7FF0FB400F038
:100160000BF80FBC03F06CFB00F045F903B4FFF78C
:10017000EEFF03BC00F0A4F904B003F0E7FB044871
:10018000002103F071FC03F0F3FB00F034F90000F0
:10019000C069000080F309887047EFF30980704759
:1001A000684680F3098804480078C00714BF02201D
:1001B000032080F31488704780690000DFF818C0BE
:1001C000EFF305831B0618BF6047EFF31483DB07CB
:1001D00008BF604700DF7047593C0000DFF818C0D7
:1001E000EFF305831B0618BF6047EFF31483DB07AB
:1001F00008BF604700DF70473D3E0000EFF3098015
:10020000816911F8021CF1B990E80F10E047EFF393
:10021000098C8CE80700144B93E8060091420FD03C
:1002200039B12CE9F00FC1F828C00CB404F0AAF9D8
:100230000CBC1A60D2F828C0BCE8F00F8CF3098817
:100240006FF0020E704710B5084A1268914209D843
:10025000074C54F8214090E80F10A047EFF3098CA9
:100260008CE80F0010BD00007000001018050000A1
:100270001805000004F058F80C4B93E80600914272
:1002800010D0EFF3098C2CE9F00FC1F828C00CB4A2
:1002900004F078F90CBC1A60D2F828C0BCE8F00F62
:1002A0008CF309886FF0020E704700007000001098
:1002B00004F030FAE0E7000003F03CFC04F02AFA16
:1002C000DAE7000000487047C01600100FB41CB5F4
:1002D000074B06AA7B4469460090059800F0C1F8D8
:1002E0000020694600F0D0F81CBC5DF814FB00004B
:1002F000B10100007047704770477047FFFFFFFF74
:100300000948804709480047FEE7FEE7FEE7FEE7A9
:10031000FEE7FEE7FEE7FEE7FEE7FEE704480549E5
:10032000034A054B70470000D9310000CD000000A2
:100330002017001020190010201700102DE9F0419F
:100340000E460446002020622046E168884730B30C
:10035000252805D0D4E901219047206A401CF2E706
:10036000E168204600278847050018D0A5F1410024
:10037000192802D820354FF4006732462946204616
:100380002760FFF7DDFE40B1012804D0F61D26F0FE
:1003900007060836D8E7361DD6E72846DAE7206A8A
:1003A000BDE8F08170B50C460546012A05D02878D5
:1003B000800600D5EA69002302E0012305E05B1C0A
:1003C000934202D2E05C0028F9D1A869E618C01A6D
:1003D000A861286A184428622846AFF3008004E028
:1003E000D5E9012114F8010B9047B442F8D328460F
:1003F000AFF3008070BD10B50446AFF30080204617
:10040000BDE81040FFF7B2BE4FF0000200B5134642
:1004100094469646203922BFA0E80C50A0E80C5024
:10042000B1F12001BFF4F7AF090728BFA0E80C50D5
:1004300048BF0CC05DF804EB890028BF40F8042BCE
:1004400008BF704748BF20F8022B11F0804F18BF3B
:1004500000F8012B7047000001694A1C026108780E
:10046000704700B58FB0CDE90131002105910549F4
:100470007944CDE9031011466846FFF75FFF0FB0DE
:1004800000BD0000E5FFFFFF0A6802F8010B0A60EB
:10049000704710B5436913B1AFF3008001E0FFF777
:1004A00081FF012010BD127800F124010A700022A2
:1004B0004A700122EDE711684FF0FF32E9E70000D2
:1004C00001491820ABBEFEE7260002007546FFF783
:1004D000F9FEAE4605006946534620F00700854602
:1004E00018B020B5FFF71AFFBDE820404FF0000616
:1004F0004FF000074FF000084FF0000B21F007010C
:10050000AC46ACE8C009ACE8C009ACE8C009ACE84E
:10051000C0098D46704700000000000000BF0121A7
:100520008140054A52E8002F22EA0101024B43E8CC
:100530000012002AF3D170475C00001070B500244F
:10054000B2E05B4801680120A0400140002975D05D
:10055000584901EB4415564840680121A140084024
:1005600000287DD00120A0405149886004EB840020
:10057000514901EB8000C06804EB84014E4A02EB54
:100580008101896888425AD004EB8400114601EB4E
:100590008000806804EB840102EB8101C968461A7F
:1005A000B6F5805F01D340F6FF7604EB8400424944
:1005B00001EB8000C068304404EB84013E4A02EB4A
:1005C0008101C860E86800F0806098B104EB8400A5
:1005D000114651F82000286004EB840051F82010E7
:1005E000E868C0F3814006FA00F0084404EB840197
:1005F00042F82100E86800F00060B8B104EB840024
:100600002D4901EB80004068686004EB840001EB39
:1006100080004168E868C0F3415006FA00F00844E1
:1006200004EB8401244A02EB81014860E86866F328
:100630000B00E860286940F00100286133E0E0B277
:10064000FFF76CFF04EB84001B4901EB800000699D
:1006500048B304EB84000A4602EB8000016900E025
:1006600002E0012088471EE01148C0680121A14036
:100670000840C0B100202861E860E0B2FFF74EFFFB
:100680000120A0400A49086104EB84000A4901EBFB
:100690008000006938B104EB84000A4602EB800058
:1006A000016902208847641C082CFFF44AAF70BD22
:1006B0000040005000410050BC15001010B5F02360
:1006C0004FF4A0720021084600F0ACFB222004F099
:1006D00023FC04F061FC002404E00648008804F0D8
:1006E00041FC641CB4F5963FF7D304F061FC002094
:1006F00010BD0000220000102DE9F04781468A4617
:1007000016462E48006818B94FF0FF30BDE8F08754
:100710002A4800684068361A284909680988C81DAF
:10072000C11700EB51714FEAE10824480068C16825
:1007300006FB08F0214A1268528800FB02151F4888
:10074000006843881D48006802885146484600F00A
:1007500069FB222004F0E0FB04F01EFC002723E0EC
:1007600000241AE0297804F00702114101F0010188
:1007700011B11349098801E012490988084604F0BB
:10078000F1FB04F00700072806D10C480068008838
:10079000401EA04200D06D1C641C08480068008800
:1007A000A042DFD86D1C7F1C044800684088B84216
:1007B000D6D804F0FDFB0020A8E7000024000010BC
:1007C000200000102200001070B505460E461446A9
:1007D00009E014F8012B31462846FFF78DFF044845
:1007E00000680088054420780028F2D170BD000020
:1007F00024000010F8B50024012000F0F9FC0020CE
:10080000034602460621009000F0C8FD01220621A1
:10081000002000F003FD01220621002000F0D4FC9E
:1008200003F09CF90446FE48816800208847FC4894
:10083000016902208847FA48FA49426AFA48904713
:1008400024BB0026304604F067FB00BF0025F448B7
:100850000121426A13209047732004F049F90020D7
:1008600004F046F9002004F043F905464FF6FF7006
:1008700000EA0525002004F03BF90543E848002183
:10088000426A1320904700BF00BF2C46472C7DD101
:100890000120E64908700021EA2004F093FB2021A2
:1008A000EB2004F08FFB0C21EC2004F08BFBC72124
:1008B000ED2004F087FB3821E82004F083FB1021B1
:1008C000E92004F07FFB0121F12004F07BFB1021E3
:1008D000F22004F077FB0121402004F073FB00219B
:1008E000412004F06FFB0021422004F06BFB10213B
:1008F000432004F067FB0E21442004F063FB242115
:10090000452004F05FFB0421462004F05BFB5021EE
:10091000472004F057FB0221482004F053FB132129
:10092000492004F04FFB19214A2004F04BFB192108
:100930004B2004F047FB16214C2004F043FB1B2105
:10094000502004F03FFB3121512004F03BFB2F21CC
:10095000522004F037FB3F21532004F033FB3F21AA
:10096000542004F02FFB3E21552004F02BFB2F21B7
:10097000562004F027FB7B21572004F023FB09219C
:10098000582004F01FFB0621592000E089E004F004
:1009900019FB06215A2004F015FB0C215B2004F002
:1009A00011FB1D215C2004F00DFBCC215D2004F027
:1009B00009FB1B21084604F005FB01211A2004F065
:1009C00001FB2F21242004F0FDFA5721252004F0FB
:1009D000F9FA8821232004F0F5FA3621182004F0D2
:1009E000F1FA0121192004F0EDFA0021012004F0B0
:1009F000E9FA88211F2004F0E5FAC82002F028FD5A
:100A000082211F2004F0DEFA322002F021FD922123
:100A10001F2004F0D7FA322002F01AFDD2211F2045
:100A200004F0D0FA322002F013FD5521172004F013
:100A3000C9FA0021084604F0C5FA11212F2004F05C
:100A4000C1FA0021312004F0BDFA0021322004F067
:100A5000B9FA3821282004F0B5FAC82002F0F8FCD1
:100A60003C21282004F0AEFAA821162004F0AAFAAE
:100A700000210E2004F0A6FA00210F2004F0A2FAB3
:100A80000121102004F09EFA4021112004F09AFA6E
:100A90000021122004F096FA0021132004F092FAAB
:100AA000A0E10020614908704FF48071012004F03A
:100AB00089FA4FF4E061022004F084FA0021042056
:100AC00004F080FA40F20721082004F07BFA0021AC
:100AD000092004F077FA00210A2004F073FA0021BB
:100AE0000C2004F06FFA00210D2004F06BFA0021B5
:100AF0000F2004F067FA0021102004F063FA0021AF
:100B0000112004F05FFA0021122004F05BFA0021AA
:100B1000132004F057FAC82002F09AFC41F2B021E9
:100B2000102004F04FFA0721112004F04BFA322074
:100B300002F08EFC40F2BD11122004F043FA322084
:100B400002F086FC4FF4A051132004F03BFA0E2172
:100B5000292004F037FA322002F07AFC002120200C
:100B600004F030FA0021212004F02CFAA4F51450EE
:100B70009338002864D0A0F53850753828B1A0F516
:100B80007C50183800287CD18BE040F60D313020A5
:100B900004F018FA41F62311312004F013FA41F65B
:100BA0002641322004F00EFA42F21C61332004F098
:100BB00009FA42F21941342004F004FA40F60B51CC
:100BC000352004F0FFF941F20601362004F0FAF96D
:100BD0004FF4C261372004F0F5F940F20671382075
:100BE00004F0F0F94FF44171392004F0EBF940F6CC
:100BF00005613A2004F0E6F940F601613B2004F07B
:100C0000E1F94FF487713C2004F0DCF940F20E5119
:100C10003D2004F0D7F940F203413E2008E00000F7
:100C20008C6A000020BCBE00018308002800001070
:100C300004F0C8F940F207613F2004F0C3F960E016
:100C40000021302004F0BEF940F20761312004F0A9
:100C5000B9F940F20531322004F0B4F90021352011
:100C600004F0B0F941F20461362004F0ABF94FF41E
:100C70000171372004F0A6F90121382004F0A2F90F
:100C800000E00DE040F20771392004F09BF90021EB
:100C90003C2004F097F90F213D2004F093F930E057
:100CA00000BF0621302004F08DF940F201113120FF
:100CB00004F088F90321322004F084F94FF48371A1
:100CC000352004F07FF940F60231362004F07AF93D
:100CD00040F20231372004F075F940F207713820F4
:100CE00004F070F90721392004F06CF94FF4C06169
:100CF0003C2004F067F940F20B213D2004F062F93A
:100D000000BF00BF0021502004F05CF9EF2151200A
:100D100004F058F90021522004F054F940F23F1138
:100D2000532004F04FF9A4F51450933848B1A0F5BE
:100D30003850753820B1A0F57C50183838B907E024
:100D400000BF4FF41C51602004F03CF906E000BFE6
:100D50004FF42741602004F035F900BF00BF0121A6
:100D6000612004F02FF900216A2004F02BF9002102
:100D7000802004F027F90021812004F023F90021CC
:100D8000822004F01FF90021832004F01BF90021C8
:100D9000842004F017F90021852004F013F91021B4
:100DA000902004F00FF90021922004F00BF90321A8
:100DB000932004F007F94FF48871952004F002F9AC
:100DC0000021972004F0FEF80021982004F0FAF8A2
:100DD00041F23801032004F0F5F840F23711072002
:100DE00004F0F0F801221C21042000F0EDF90020AD
:100DF000F8BD00000146024A118000207047000043
:100E000022000010014602480160002070470000E7
:100E1000240000100146024A1180002070470000A3
:100E2000200000102DE9F04704460D4690469946F3
:100E300004EB0800461E05EB0900471E2048007819
:100E400020B3C4F30F21022004F0BCF8E1B2032068
:100E500004F0B8F8C6F30F21042004F0B3F8F1B29F
:100E6000052004F0AFF8C5F30F21062004F0AAF81E
:100E7000E9B2072004F0A6F8C7F30F21082004F018
:100E8000A1F8F9B2092004F09DF817E0A9B25020AA
:100E900004F098F8B9B2512004F094F8A1B25220AD
:100EA00004F090F8B1B2532004F08CF8A9B22020DD
:100EB00004F088F8A1B2212004F084F8BDE8F0879E
:100EC000280000102DE9F05F0446884691461E4632
:100ED000DDE90BAB0A9F082C03DB4FF0FF30BDE8C8
:100EE000F09F204602F05CF9401C10B94FF0FF3033
:100EF000F5E704EB84002D4901EB8000C0F810B049
:100F00002B4901EB441500202861E8600120A04036
:100F1000284988600120A04008610020A8600120C5
:100F2000086300BF2348006B00F001000028F9D0DF
:100F300004EB84001D4901EB80008660B6F5805FFC
:100F400001D340F6FF76384666F30B000746C5F836
:100F50000080C5F8049007F0806020B1C7F381409D
:100F600006FA00F0804407F0006020B1C7F341505A
:100F700006FA00F0814404EB84000C4941F820801B
:100F800004EB840001EB8000C0F8049004EB8400C3
:100F900001EB8000C660EF60C5F810A00AF0010008
:100FA00010B92046FFF7BAFA002098E7BC150010E8
:100FB000004100500040005010B50446082C02DBF0
:100FC0004FF0FF3010BD2046FFF7A8FA054901EBAE
:100FD0004410006920F001000A4602EB4411086148
:100FE0000020EFE7004100500146082901DB002006
:100FF000704701EB8100064A02EB8000C068054B98
:1010000003EB4112D268C2F30B02801AF0E7000032
:10101000BC1500100041005010B526480068401C67
:101020002449086008460068012801D9002010BD45
:101030002148006840F000501F49C439C1F8C4007D
:10104000002419E000201D4A02EB4411086104EB62
:1010500084011B4A42F8210004EB840102EB810168
:10106000486004EB840102EB8101886004EB840199
:1010700002EB8101C860641C082CE3D3FF201149F6
:10108000886008611A2002F063F91A2000280DDB3D
:1010900000BF00BF00F01F020121914042099200F1
:1010A00002F1E022C2F8001100BF00BF00BF002023
:1010B000BDE7000060000010C4C00F4000410050B8
:1010C000BC1500100040005010B502460F2A03D88E
:1010D000082A01D3012902D94FF0FF3010BD39B1E0
:1010E00009480068A2F1080301249C40204306E05F
:1010F00005480068A2F1080301249C40A043024B6C
:1011000018600020EAE70000C4C10F4010B516487F
:10111000006810B94FF0FF3010BD13480068401E42
:10112000114908600846006808B10020F4E70F483C
:10113000006820F000500D49C439C1F8C4001A20DD
:1011400000280BDB00F01F0201219140084A4309EF
:1011500042F82310BFF34F8FBFF36F8F00BF1A20E9
:1011600002F0F6F80020D7E760000010C4C00F407E
:1011700080E100E00948C068094908400749C860A3
:101180000846C06C064908400449C8640548006A1E
:1011900020F02470034908627047000000C002403C
:1011A000FF3CF3FF00C0092002460648202303FB52
:1011B0000200406901238B40184008B101207047AC
:1011C0000020FCE700C0092030B53AB101238B4074
:1011D000064C202505FB0044A36106E001238B405B
:1011E000024C202505FB0044E36130BD00C009200E
:1011F00040B10949096841F40041074AC43AC2F8BC
:10120000C41007E00449096821F40041024AC43AC5
:10121000C2F8C41070470000C4C00F4030B55AB1C6
:101220000B4C04EB40131B6801248C402343084DF6
:1012300005EB401423600AE0054C04EB40131B68E7
:1012400001248C40A343024D05EB4014236030BDC4
:1012500000C0092010B5114B1B689B6A1B680F4C1E
:10126000246894F82040E34003F0030232B1012ADD
:1012700006D0022A06D0032A08D105E0042106E0A0
:10128000012104E0022102E0082100BF00BF00BFED
:10129000034B1B68B3FBF1F010BD000048000010C9
:1012A0006400001030B50246946A24682025AD5CC5
:1012B000EC4004F0030333B1012B06D0022B06D01F
:1012C000032B08D105E0042106E0012104E00221FE
:1012D00002E0082100BF00BF00BF024C2468B4FB3D
:1012E000F1F030BD6400001038B50120FFF780FF39
:1012F000002421E00020124A02EB440200905178C1
:101300000F4A12F814000323002200F047F80C4A99
:1013100002EB440251780A4A12F814000122FFF746
:101320007DFF074A02EB44025178054A12F8140087
:101330000022FFF749FF641C082CDBD3002038BDD6
:101340005869000070B504460025082C0AD2074AE7
:1013500002EB44025178054A12F814000022FFF70C
:1013600033FF01E04FF0FF35284670BD586900009B
:1013700070B504460025082C0AD2074A02EB440245
:101380005178054A12F814000122FFF71DFF01E011
:101390004FF0FF35284670BD586900002DE9F04137
:1013A00004460D461646069F00212A46102D03DBF3
:1013B000A5F11000C2B20121DFF8D8C00CEBC400C7
:1013C00050F821004FEA42084FF0030C0CFA08FCD9
:1013D00020EA0C00DFF8BC8008EBC40C4CF82100BC
:1013E000C4460CEBC40050F821004FEA420C06FA48
:1013F0000CFC40EA0C0008EBC40C4CF8210025481A
:10140000403000EBC40050F821004FEA42084FF092
:10141000030C0CFA08FC20EA0C0C1E48403000EBD0
:10142000C40040F821C01B48403000EBC40050F815
:1014300021004FEA420C03FA0CFC40EA0C00DFF8F2
:1014400054C00CF1400C0CEBC40C4CF82100012FE3
:101450000ED11048683050F824C00120A8404CEA52
:101460000000DFF830C00CF1680C4CF824000DE0EF
:101470000848683050F824C00120A8402CEA000039
:10148000DFF810C00CF1680C4CF824000020BDE817
:10149000F081000000C002402DE9F84304460E46EA
:1014A000FE480068006BC07900F0020018B94FF0E8
:1014B000FF30BDE8F883E0B2142815D1F748006882
:1014C0000068006820F08000F44909680968086035
:1014D000F2490968486B1C21FEF796FF0020EF498E
:1014E0000968096B0871E4E7EC480068006B007953
:1014F00010B16FF00100DCE7E0B204287DD007DC1A
:1015000088B101282DD0022854D0032808D180E0CA
:10151000102873D0112872D0122871D0132870D0DF
:101520006FF00300C5E7DD480068006B806820F0BD
:10153000FF00DA490968096B8860D8480068006BC9
:101540008068D6490968096B8860D4480068006BD8
:10155000C07920F00400D1490968096BC8710020E6
:10156000A7E7CE4800680068006840F02000CB493B
:10157000096809680860C9480068006B806820F045
:10158000FF00C6490968096B8860C4480068006BA1
:10159000806840F00100C1490968096B8860BF4854
:1015A0000068006BC07940F00400BC490968096B11
:1015B000C87133E0B94800680068006820F0200076
:1015C000B649096809680860B4480068006B80681B
:1015D00020F0FF00B1490968096B8860AF480068D6
:1015E000006B806840F00200AC490968096B8860B4
:1015F000AA480068006BC07904E00BE00DE033E01E
:101600003CE041E040F00400A4490968096BC8715E
:101610006DE000BF6FF006004BE700BF16B94FF05A
:10162000FF3046E7FFF716FE8046B8FBF6F5082DBB
:1016300000D20825FE2D02D94FF0FF3039E705F022
:10164000010008B16D1C04E005FB06F0404500D226
:10165000AD1CE8B2914909680968C860E0B2102879
:1016600001D1002025E742E0FFF7F4FD8B4909682E
:101670000968C968C9B2B0FBF1F01AE7874909687F
:10168000496B0E83002014E784480068006B007AE1
:10169000012808D181480068006B806800F4C01000
:1016A000B0F5002F02D04FF0FF3002E77B48006812
:1016B000406810B94FF0FF30FBE65EB9774A126818
:1016C00052685178754A1268526810780122FFF703
:1016D0007BFD0AE0714A1268526851786F4A1268BD
:1016E000526810780022FFF76FFD0020E1E600BF8E
:1016F0006A480068006B007A01287BD104F4C010AE
:1017000048B1B0F5002F38D0B0F5801F7AD0B0F5D1
:10171000C01F71D124E061480068406868B10020B2
:101720005E4A00901268526851785C4A12685268AA
:10173000107800231A46FFF731FE58480068006B06
:10174000806820F4C01055490968096B88605348C7
:101750000068006B806851490968096B88607FE008
:101760004E480068006B806820F4C0104B4909683F
:10177000096B88606FF00A009BE648480068006BC0
:10178000806820F4C01045490968096B88604348A7
:101790000068406888B30020404A00901268526890
:1017A00051783E4A12685268107803230022FFF7EE
:1017B000F5FD3A4A126852685178384A1268526800
:1017C00010780122FFF72AFD344A126852685178D6
:1017D000324A1268526810780122FFF7F5FC2F4850
:1017E0000068006B806840F400202C490968096B90
:1017F000886006E035E005E031E0FFE76FF00A00C1
:1018000057E62DE025480068006B806820F4C01082
:1018100022490968096B8860204800684068D0B197
:1018200000201E4B00901B681A7D1C4B1B685B68D8
:1018300059781A4B1B685B6818780323FFF7AEFDD5
:1018400016480068006B806840F4801013490968EE
:10185000096B886002E06FF00A002AE600E000BF32
:1018600000BF0E480068006B007A022843D104F4E0
:10187000001018B1B0F5001F3BD12DE007480068FB
:10188000006B806820F4001004490968096B8860C7
:10189000024800684068D8B1002001E0480000100C
:1018A000764B00901B681A7D744B1B685B685978F7
:1018B000724B1B685B6818780323FFF76FFD6F4856
:1018C0000068006B80686D490968096B886002E0F8
:1018D0006FF00A00EDE50DE068480068006B806875
:1018E00020F4001065490968096B88606FF00A00F0
:1018F000DFE500BF00BF04F4E060B0F5407F44D0F6
:1019000007DC68B1B0F5807F15D0B0F5007F47D116
:1019100026E0B0F5806F44D0B0F5A06F40D141E033
:10192000564800680068006820F0180053490968AC
:101930000968086039E0514800680068006820F0D4
:1019400010004E490968096808604C480068006842
:10195000006840F00800494909680968086024E007
:10196000464800680068006840F010004349096874
:1019700009680860414800680068006820F00800B5
:101980003E490968096808600FE03C480068006843
:10199000006840F01800394909680968086004E0E7
:1019A00000BF00BF6FF0070083E500BFC4F3053739
:1019B000082F0AD1314800680068006820F0040050
:1019C0002E490968096808603CE0102F14D12B48A3
:1019D00000680068006840F0040028490968096848
:1019E0000860264800680068006820F47060234999
:1019F00009680968086025E0082F20D9102F1ED239
:101A00001E4800680068006840F004001B4909682F
:101A100009680860194800680068006820F4706070
:101A20001649096809680860144800680068006879
:101A300040EA0720114909680968086002E06FF070
:101A4000080036E504F48020B0F5802F0AD10B4859
:101A500000680068006840F04000084909680968AB
:101A6000086009E0054800680068006820F0400050
:101A7000024909680968086000201AE5480000105A
:101A80000148006870470000D469000006480068FB
:101A9000006BC07900F0040008B9002070470248CC
:101AA0000068406BC068F9E74800001008B50D48B1
:101AB0000068006B0179009861F30000009009480C
:101AC0000068006B4179009861F34100009005487F
:101AD0000068006B8179009861F3820000900098A3
:101AE00008BD00004800001008B5024800680090DA
:101AF00008BD0000D069000070B58048006800682B
:101B00004068C5B201207D4909680968C86105F0CF
:101B1000100078B1012179480068006B8171774825
:101B20000068006B006828B174480068006B0168A9
:101B30000420884705F0200078B101216F48006833
:101B4000006B41716D480068006B006828B16B48FC
:101B50000068006B01680220884705F080000028BB
:101B60007ED066480068406B006864490968496B2C
:101B7000096988424BD961480068406B8068A0B30E
:101B80005E480068406B81685C480068406B806814
:101B9000401C5A4A1268526B90600C785748006893
:101BA0000068006800F0040020B354480068006832
:101BB000006800F4706038B1504800680068006840
:101BC00000F47060082815D94C480068406B8168A3
:101BD0004A480068406B8068401C484A1268526B53
:101BE0009060087844EA002404E0FFE74348006876
:101BF000406B048B41480068006884603F4800687F
:101C0000406B0069401C3D490968496B08613B48CD
:101C10000068406B006839490968496BC9688842A7
:101C20006BD9364800680068806884B23348006821
:101C3000406B4068A0B331480068406B42682F4851
:101C40000068406B4068401C2C4B1B685B6B586005
:101C500014702A4800680068006800F0040000E082
:101C60004BE0E8B1254800680068006800F4706047
:101C700038B1224800680068006800F470600828E5
:101C80000ED921121D480068406B42681B4800684D
:101C9000406B4068401C194B1B685B6B58601170AF
:101CA00016480068406BC068401C14490968496BBD
:101CB000C86012480068406BC06810490968496BE9
:101CC0000968884219D10D4800680068006820F052
:101CD00080000A4909680968086000200749096806
:101CE000096B087105480068006B006828B103485B
:101CF0000068006B01680120884770BD4800001033
:101D000038B504462F480068006BC07900F0010028
:101D100008B1002038BD2B480068006B046000202B
:101D200028490968096B0871002126480068006B82
:101D3000417124480068006B817122490968486B31
:101D40001C21FEF761FB00201E4B00901B685A7D92
:101D50001C4B1B689B6859781A4B1B689B6818784A
:101D60000023FFF71BFB17480068C06878B100200C
:101D7000144B00901B689A7D124B1B68DB685978E6
:101D8000104B1B68DB6818780023FFF707FB0D4832
:101D90000068006978B100200A4B00901B68DA7D6A
:101DA000084B1B681B695978064B1B681B69187820
:101DB0000023FFF7F3FA012002490968096BC87193
:101DC0000020A7E74800001010B5044614B1022C0B
:101DD0007ED154E06748006840F480706549C4399A
:101DE000C1F8C4006449096891F92C0000280BDB94
:101DF00000F01F0201219140604A430942F823107C
:101E0000BFF34F8FBFF36F8F00BF00205A4909689F
:101E100009680860584909680968C8605648006838
:101E2000C06900685449096889698843524909684A
:101E3000C9690860002050490968096B08710021D0
:101E40004D480068006B41714B480068006B817120
:101E50004949096891F92C0001F05EFA4649096880
:101E6000486B1C21FEF7D0FA43480068006BC0792C
:101E700020F0020040490968096BC87177E03E48CC
:101E80000068006BC07900F0010010B94FF0FF301E
:101E900010BD39480068006BC07900F0020008B13D
:101EA0000020F5E73348006840F480703149C439B8
:101EB000C1F8C40030480068806A00682E4909688B
:101EC00091F820200321914088432B49096800E0C4
:101ED0004AE0896A086028480068406A264909681B
:101EE00091F82010884024490968896A09680843E4
:101EF00021490968896A086000201F490968096842
:101F0000C8601D490968096B087100211A480068FA
:101F1000006B417118480068006B817116480068B9
:101F2000006BC07940F0020013490968096BC87161
:101F30001149096891F92C0001F0EEF90E49096880
:101F400091F92C0000280DDB00BF00BF00F01F023C
:101F5000012191404209920002F1E022C2F80011F1
:101F600000BF00BF00BF02E06FF0030090E700BFBA
:101F700000208DE7C4C00F404800001080E100E061
:101F8000024602B111B96FF0040070472948006899
:101F9000006BC07900F0040010B94FF0FF30F4E797
:101FA00024480068006B007910B16FF00100ECE785
:101FB0000120204B1B681B6B187100231D48006813
:101FC000006B43711B480068006B837119480068FF
:101FD000406B42600020174B1B685B6B9860154894
:101FE0000068406B01600020124B1B685B6BD8607F
:101FF000104B1B685B6B18610E480068406B008BD0
:102000000C4B1B681B6898600A480068406B0069AD
:10201000401C084B1B685B6B186106480068006831
:10202000006840F08000034B1B681B6818600020AC
:10203000ABE700004800001030B5024602B111B90C
:102040006FF0040030BD41480068006BC07900F0BB
:10205000040010B94FF0FF30F4E73C480068006B13
:10206000007910B16FF00100ECE70120374C2468D3
:10207000246B2071002435480068006B447133489C
:102080000068006B84710020304C2468646B6060D1
:102090002E480068406B82602C480068406B0160ED
:1020A00000202A4C2468646BE060284C2468646B30
:1020B000206126480068406B846824480068406BB3
:1020C0008068401C214D2D686D6BA86023781F48E7
:1020D00000680068006800F00400F0B11B48006868
:1020E0000068006800F4706038B118480068006843
:1020F000006800F4706008280FD914480068406B2D
:10210000846812480068406B8068401C0F4D2D6841
:102110006D6BA860207843EA00230C4800680068D3
:1021200083600A480068406B0069401C074C2468C3
:10213000646B2061054800680068006840F080001A
:10214000024C24682468206000207BE748000010CF
:1021500070B503460BB101B112B96FF0040070BD48
:1021600040480068006BC07900F0040010B94FF0DF
:10217000FF30F4E73B480068006B007910B16FF066
:102180000100ECE70120374D2D682D6B28710025EB
:1021900034480068006B457132480068006B8571F7
:1021A00030480068406B41602E480068406B836097
:1021B0002C480068406B026000202A4D2D686D6B32
:1021C000E860284D2D686D6B286126480068406BDB
:1021D000856824480068406B8068401C214E366842
:1021E000766BB0602C781F4800680068006800F0CB
:1021F0000400F0B11B4800680068006800F47060DB
:1022000038B1184800680068006800F47060082859
:102210000FD914480068406B856812480068406B0D
:102220008068401C0F4E3668766BB060287844EAB0
:1022300000240C480068006884600A480068406B0D
:102240000069401C074D2D686D6B286105480068CA
:102250000068006840F08000024D2D682D682860FD
:1022600000207CE74800001008B525480068406859
:1022700068B10020224A0090126852685178204AC2
:1022800012685268107800231A46FFF787F800207A
:102290001B4A0090126892685178194A1268926835
:1022A000107800231A46FFF779F815480068C068CF
:1022B00068B10020124A00901268D2685178104A22
:1022C0001268D268107800231A46FFF767F80C48A6
:1022D0000068006968B10020094A0090126812691C
:1022E0005178074A12681269107800231A46FFF7DE
:1022F00055F8002002490968096BC87108BD000043
:102300004800001070B504460D46034A2946204691
:1023100000F080F870BD0000446A000010B504466B
:102320000249204600F005FB10BD0000446A000091
:1023300010B504460249204600F016FB10BD00000F
:10234000446A000010B5024800F01CFB10BD0000FC
:10235000446A000008B5024800F02AFB009008BD5E
:10236000446A000010B5024800F038FB10BD0000C0
:10237000446A000010B504460249204600F0B0FB54
:1023800010BD0000446A000010B504460249204612
:1023900000F0FAFB10BD0000446A000070B504466E
:1023A0000D46034A2946204600F0C0FC70BD0000DF
:1023B000446A000070B504460D46034A294620468B
:1023C00000F062FD70BD0000446A000070B5044674
:1023D0000D461646034B32462946204600F0FEFDC8
:1023E00070BD0000446A000010B5024800F09FFE76
:1023F00010BD0000446A00000148006870470000FA
:10240000406A000008B502480068009008BD00005E
:102410003C6A00002DE9FF5F05460E4614464FF06A
:10242000000902200390002002900190206CC079E6
:1024300000F0020020B94FF0FF3004B0BDE8F09F7B
:10244000E8B2142828D12068406820F002002168F2
:102450004860002021684861206C007968B194F8D8
:102460002C0018B12D21085DFEF7A6FD3420005D7B
:1024700018B13521085DFEF79FFD1C21606CFDF74A
:10248000C3FF0020216C08712068406840F0020002
:10249000216848600020D0E7206C007910B16FF00F
:1024A0000100CAE7E8B204287ED007DC88B1012821
:1024B0002AD0022850D0032808D17AE010287CD0F6
:1024C000112873D0122872D0132871D06FF0030036
:1024D000B3E72068406820F00200216848600020CF
:1024E00021684861206C806820F0FF00216C8860C2
:1024F000206C8068216C8860206CC07920F004001A
:10250000216CC871002098E72068406820F0020024
:10251000216848600020216848612068406820F0F8
:10252000040021684860206C806820F0FF00216C66
:102530008860206C806840F00100216C8860206C0D
:10254000C07940F00400216CC8712068406840F0F8
:1025500002002168486031E02068406820F00200F5
:10256000216848602068406840F0040021684860A5
:10257000012021684861206C806820F0FF00216CF8
:102580008860206C806840F00200216C8860206CBC
:10259000C07940F00400216CC8712068406840F0A8
:1025A00002002168486090E004E006E057E065E042
:1025B00068E000BF6FF006003FE700BF16B94FF0BC
:1025C000FF303AE72046FEF76DFE4FEA001B36016A
:1025D000022722E04FF000081BE008F101007843D9
:1025E000BBFBF0F94E4505D1CDF804900397CDF82B
:1025F00008801AE04E450AD90198301AA6EB090165
:10260000884204D9CDF804900397CDF8088008F1EA
:102610000108B8F1FF0FE0D9BF1CFF2FDAD30198F2
:1026200010B94FF0FF3008E700BF0398C0B221682F
:1026300008612068006820F47F40216808602068F5
:1026400000684FF47F42029902EA012108432168A1
:102650000860E8B2102801D10020EEE635E02046FF
:10266000FEF720FE21680969C9B222681268C2F328
:102670000722521C5143B0FBF1F0DEE6616C0E8381
:102680000020DAE6206C007A012806D1206C8068F0
:1026900000F4C010B0F5002F02D04FF0FF30CCE6B0
:1026A000606810B94FF0FF30C7E636B962685178FC
:1026B00010780122FEF788FD05E0626851781078F5
:1026C0000022FEF781FD0020B7E600BF206C007AF3
:1026D000012872D105F4C01048B1B0F5002F25D003
:1026E000B0F5801F4AD0B0F5C01F64D115E0606816
:1026F00040B10020009062685178107800231A469B
:10270000FEF74CFE206C806820F4C010216C8860BD
:10271000206C8068216C88604EE0206C806820F41A
:10272000C010216C88606FF00A0086E6206C80681B
:1027300020F4C010216C88606068D8B1002000903F
:1027400062685178107803230022FEF727FE626842
:10275000517810780122FEF761FD62685178107897
:102760000122FEF731FD206C806840F40020216CCE
:10277000886002E06FF00A005FE61DE0206C806870
:1027800020F4C010216C8860606878B1002000904F
:10279000227D6368597818780323FEF7FFFD206CCB
:1027A000806840F48010216C886003E06FF00A00BC
:1027B00043E602E000BF00BF00BF206C007A0228A1
:1027C0002DD105F4001018B1B0F5001F23D119E088
:1027D000206C806820F40010216C8860606868B10B
:1027E00000200090227D6368597818780323FEF753
:1027F000D5FD206C8068216C886002E06FF00A00D3
:102800001BE60BE0206C806820F40010216C8860CF
:102810006FF00A0011E66FF00A000EE600BF05F443
:10282000E060B0F5407F42D007DC68B1B0F5807F52
:1028300017D0B0F5007F59D126E0B0F5806F43D0B6
:10284000B0F5A06F52D148E02068006820F0300059
:10285000216808602068006820F0C00021680860D6
:1028600047E02068006820F0300021680860206898
:10287000006820F04000216808602068006840F08F
:1028800080002168086034E02068006820F0300093
:10289000216808602068006840F0400021680860F6
:1028A0002068006820F080002168086021E020682E
:1028B000006820F03000216808602068006840F05F
:1028C000C0002168086014E02068006820F0300033
:1028D00040F01000216808600BE02068006820F0DC
:1028E000300040F020002168086002E06FF007002F
:1028F000A3E500BFC5F3053ABAF1040F0CD3BAF152
:10290000100F09D82068006820F00F00AAF101011B
:1029100008432168086002E06FF008008DE505F4C7
:102920008020B0F5802F02D16FF0090085E50020EE
:1029300083E570B505460C46012D02D0022D0FD15E
:102940000FE0606C0068616CC8600020216C087149
:10295000206C006818B1206C01680120884701E0F4
:1029600000BF00BF00BF70BD012802D0022805D102
:1029700005E04A6C12684B6C1A6101E000BF00BFB1
:1029800000BF704770B50446206CC07900F00400A9
:1029900008B9002070BD3420005D28B13521085DE4
:1029A000FEF722FB054601E0606CC5682846F1E7AA
:1029B00008B50146086C0279009862F300000090A7
:1029C000086C4279009862F341000090086C8279AB
:1029D000009862F382000090009808BD70B504462C
:1029E0002068C66906F00300216808622068C06894
:1029F00000F0020030B3606C0068616C09698842C5
:102A000020D9606C8068A0B1606C8168481C626CE1
:102A100090600D782068006800F00F0007280AD940
:102A2000606C8168481C626C9060087845EA0025FB
:102A300001E0606C058B20688560606C0069401C5B
:102A4000616C08612068C06800F00400002839D07B
:102A50002068806885B2606C0068616CC9688842D3
:102A600030D9606C406890B1606C4268501C636CF7
:102A7000586015702068006800F00F00072806D91C
:102A80002912606C4268501C636C58601170606C55
:102A9000C068401C616CC860606CC068616C09688B
:102AA00088420FD12068406920F00F0021684861FA
:102AB0000020216C0871206C006818B1206C01683E
:102AC0000120884706F0010048B10121206C4171C6
:102AD000206C006818B1206C01680220884770BD26
:102AE00038B505460C46206CC07900F0010008B1ED
:102AF000002038BD206C05600020216C0871002189
:102B0000206C4171206C81711C21606CFDF77CFC94
:102B100000200090627DA368597818780023FEF7A2
:102B20003DFCE06840B100200090A27DE368597848
:102B300018780023FEF732FC206940B10020009095
:102B4000E27D2369597818780023FEF727FC94F872
:102B50002C0010B93420005D08B1FEF75DFA94F83E
:102B60002C0020B12E21085D0021FEF7ADFA3420A3
:102B7000005D20B13621085D0021FEF7A5FA012095
:102B8000216CC8710020B4E770B505460C4615B13C
:102B9000022D7DD152E094F93C0000280BDB00F0BF
:102BA0001F0201219140604A430942F82310BFF3FC
:102BB0004F8FBFF36F8F00BFE0690068A1690843C2
:102BC000E1690860206C007968B194F82C0018B1B4
:102BD0002D21085DFEF7F0F93420005D18B1352194
:102BE000085DFEF7E9F90020216848612168486224
:102BF0002168086021684860216808610320216815
:102C00000862E0690068A1698843E169086094F995
:102C10003C0000F08FFB0020216C08710021206C2B
:102C20004171206C81711C21606CFDF7EDFB206C03
:102C3000C07920F00200216CC87172E0206CC0796C
:102C400000F0010010B94FF0FF3070BD206CC0796A
:102C500000F0020008B10020F7E7E0690068A16910
:102C60000843E1690860A06A006820210A5D032129
:102C700091408843A16A08602021095D606A88400C
:102C8000A16A09680843A16A08600020216800E081
:102C900044E048610320216808620020216C08712B
:102CA0000021206C4171206C8171206CC07940F052
:102CB0000200216CC87101E0206880682068C0684B
:102CC00000F004000028F7D194F82C0028B1206807
:102CD000406A40F00200216848623420005D28B15B
:102CE0002068406A40F001002168486294F93C0085
:102CF00000F020FB94F93C0000280DDB00BF00BF72
:102D000000F01F02012191404209920002F1E022ED
:102D1000C2F8001100BF00BF00BF02E06FF0030067
:102D200093E700BF002090E780E100E0FEB5054694
:102D30000E46144605B116B96FF00400FEBD206CB6
:102D4000C07900F0040010B94FF0FF30F6E7206CB6
:102D5000007910B16FF00100F0E70120216C0871DB
:102D60000021206C4171206C8171606C008B4549A1
:102D70000860606C45600020616C8860606C066073
:102D80000020616CC860616C086194F82C00002818
:102D900073D03420005D00286FD03620005D3E22C5
:102DA00002EA400040F45042521CA16B20680068C7
:102DB00000F00F00072801D9012000E000204FF4A7
:102DC000402303EA804023681B6803F00F03072BAE
:102DD00001D9012300E000234FF4C00707EA435361
:102DE000184340F00840CDE901210090226802F12B
:102DF00008013522105D33462A46FEF763F8401C71
:102E000010B94FF0FF3099E72E20005D4FF4F862C3
:102E100002EA801040F44842521C216B206800688E
:102E200000F00F00072801D9012000E000204FF436
:102E3000402303EA804023681B6803F00F03072B3D
:102E400001D9012300E000234FF4C00707EA4353F0
:102E5000184340F00040CDE901210090216801F1C4
:102E600008022D21085D33460649FEF72BF8401C69
:102E700030B94FF0FF3061E7FFE70F20216848616C
:102E800000205BE758000010FEB505460E461446CC
:102E900005B116B96FF00400FEBD206CC07900F0DA
:102EA000040010B94FF0FF30F6E7206C007910B144
:102EB0006FF00100F0E70120216C08710021206C07
:102EC0004171206C81710020616C4860606C85608C
:102ED000606C06600020616CC860616C086194F8E9
:102EE0002C00002873D03420005D00286FD03620DD
:102EF000005D3E2202EA400040F45042521CA16BA9
:102F00002068006800F00F00072801D9012000E0C8
:102F100000204FF4402303EA804023681B6803F03D
:102F20000F03072B01D9012300E000234FF4C00752
:102F300007EA4353184340F00040CDE901210090D7
:102F4000226802F108013522105D3346224AFDF75E
:102F5000B9FF401C10B94FF0FF309DE72E20005DF7
:102F60004FF4F86202EA801040F44842521C216B90
:102F70002068006800F00F00072801D9012000E058
:102F800000204FF4402303EA804023681B6803F0CD
:102F90000F03072B01D9012300E000234FF4C007E2
:102FA00007EA4353184340F00440CDE90121009063
:102FB000216801F108022D21085D33462946FDF7FD
:102FC00081FF401C30B94FF0FF3065E7FFE70F206D
:102FD0002168486100205FE754000010FEB50546F7
:102FE0000E4617461C460DB106B117B96FF0040026
:102FF000FEBD206CC07900F0040010B94FF0FF3026
:10300000F6E7206C007910B16FF00100F0E70120C5
:10301000216C08710021206C4171206C8171606C01
:103020004660606C8560606C07600020616CC86001
:10303000616C086194F82C00002873D03420005D86
:1030400000286FD03620005D3E2202EA400040F4A6
:103050005042521CA16B2068006800F00F00072846
:1030600001D9012000E000204FF4402303EA804012
:1030700023681B6803F00F03072B01D9012300E02D
:1030800000234FF4C00C0CEA4353184340F00840AF
:10309000CDE901210090226802F108013522105D7E
:1030A0003B463246FDF70EFF401C10B94FF0FF3093
:1030B0009EE72E20005D4FF4F86202EA801040F493
:1030C0004842521C216B2068006800F00F0007285E
:1030D00001D9012000E000204FF4402303EA8040A2
:1030E00023681B6803F00F03072B01D9012300E0BD
:1030F00000234FF4C00C0CEA4353184340F0044043
:10310000CDE901210090216801F108022D21085D1F
:103110003B462946FDF7D6FE401C30B94FF0FF3044
:1031200066E7FFE70F2021684861002060E738B5B7
:103130000446606840B100200090626851781078C1
:1031400000231A46FEF72AF900200090A268517861
:10315000107800231A46FEF721F9E06840B10020FC
:103160000090E2685178107800231A46FEF716F9AD
:10317000206940B100200090226951781078002326
:103180001A46FEF70BF994F82C0010B93420005DB4
:1031900008B1FDF7BBFF0020216CC87138BD0000ED
:1031A00010B5014600BF0B4850E8002F01208840B1
:1031B000104020B1BFF32F8F4FF0FF3010BD012022
:1031C00088401043034C44E80003002BEBD100205F
:1031D000F4E700005C00001020204B4908604B48D9
:1031E000D0F8A00100F0200030B100BF46480068D0
:1031F00000F040000028F9D0032043499C390860C2
:1032000000204249C1F8A8013F490C310860012063
:103210003D49943908603E483C4984310860AA2001
:103220003A498C31086055200860012037498031C7
:103230000860AA2035498C31086055203349C1F80F
:103240008C0000BF31488830006800F080600028A2
:10325000F8D003202D4980310860AA202B49C1F8FD
:103260008C00552029498C31086000BF27488830E0
:10327000006800F04070B0F1407FF7D1232023496F
:10328000A4310860AA202149C1F8AC0055201F498B
:10329000AC31086001201D49A0310860AA201B49FB
:1032A000AC31086055201949C1F8AC0000BF17487F
:1032B000A830006800F480600028F8D0032013498B
:1032C000A0310860AA201149C1F8AC0055200F496F
:1032D000AC31086000BF0D48A830006800F44070B1
:1032E000B0F5407FF7D10B480849C4310860002091
:1032F0000649C1F8C8010846006820F4704040F44F
:103300008040086070470000A0C10F4000C00F401F
:1033100063000500DE872804002807DB00F01F0299
:1033200001219140024A430942F8231070470000EE
:1033300080E200E0002807DB00F01F02012191403D
:10334000024A430942F823107047000080E200E07F
:10335000002807DB00F01F0201219140024A4309C7
:1033600042F823107047000080E200E010B5002A08
:1033700006DA22F00042D21D22F00703102203E0F9
:10338000D21C22F003030C2213B19C188C4201D9E9
:10339000012010BD024401448360C0E90021C91A24
:1033A000D018884202D810600246F9E70020106069
:1033B00010BD000005490978002905D000684FF6C6
:1033C000FF71DFF80CC000DF7047000069000010DB
:1033D000B142000004490978002903D00068DFF8F1
:1033E0000CC000DF7047000069000010D9410000E8
:1033F00008480068C0010BD507480068C00707D01F
:10340000054880380068002802DA04490120087065
:1034100070470000FCED00E0800E00E08C00001022
:103420004FF06042D36F002BFCD0036BD367D36F98
:10343000002BFCD0C07840EA0120A2F87C00704745
:103440004FF06041CA6F002AFCD081F87C007047C1
:103450000A490968890B48430CE000BF00BF00BF60
:1034600000BF00BF00BF00BF00BF00BF00BF00BF64
:1034700000BF401E0028F0D170470000640000101B
:1034800010B58AB04FF0FF311A48006800F0E0FA3A
:103490006FF07F40FDF7AEFC002422E01648006884
:1034A000844207D1FF20FDF7A5FC6FF07F40FDF7B8
:1034B000B1FC06E06FF07F40FDF79CFC0020FDF7BB
:1034C000A9FC0E4850F834200DA101A8FCF7FEFE1F
:1034D000A01C00EB4000C10001AA0020FDF774F918
:1034E000641C082CDADB0348006800F0A5FA0AB077
:1034F00010BD0000080000100C000010900000102B
:103500002573202020202020202020202020202063
:10351000202020202020000030B589B004460D4630
:103520004FF0FF311A48006800F092FA6FF07F40C8
:10353000FDF760FC0020FDF76DFC164850F83420C4
:1035400015A101A8FCF7C2FEA01C00EB4000C100C1
:1035500001AA0020FDF738F9FF20FDF74BFC6FF0C2
:103560007F40FDF757FC0B4850F835200AA101A811
:10357000FCF7ACFEA81C00EB4000C10001AA002033
:10358000FDF722F90248006800F056FA09B030BD94
:10359000080000109000001025732020202020201B
:1035A000202020202020202020202020202000005B
:1035B00010B54FF47F0102A001F066FA10BD0000C3
:1035C00045786974696E67204D656E75000000006E
:1035D00090B0284903C9CDE90E012748DDE90E1254
:1035E00006C02449083103C9CDE90C012248DDE9B0
:1035F0000C12C0E902121F49103103C9CDE90A01BA
:103600001D48DDE90A12C0E904121A49183103C93C
:10361000CDE908011848DDE90812C0E9061215498C
:10362000203103C9CDE906011348DDE90612C0E9DE
:1036300008121049283103C9CDE904010E48DDE91B
:103640000412C0E90A120B49303103C9CDE9020165
:103650000948DDE90212C0E90C120649383103C9F4
:10366000CDE900010448DDE90012C0E90E1210B0F6
:103670007047000078500000900000100EB58022C6
:1036800000B109B110460AE001780129FAD101A977
:1036900000F020F8042801D0002000E01020DDE92F
:1036A000011203B000BD70B50D46040003D012B97D
:1036B0002078012801D0802070BD204600F07EFCDB
:1036C00028B12946204600F030F8002070BD812046
:1036D00070BD000010B504468089002824D06089A0
:1036E00004EB800000690860606840B160780228DF
:1036F00005D10021204600F065FE00F053FE04F1E4
:103700000C0000BFD0E85F1F491E8AB2C0E8512FED
:103710000029F7D16089401C80B26081E18988422C
:1037200001D100206081042010BD10B500F04AFED8
:10373000BDE8104000F036BE79E000F073FA0446B0
:1037400000F04CF9054604F0010018B10120FDF726
:103750000FFE02E00120FDF7F5FD04F0020018B1B4
:103760000220FDF705FE02E00220FDF7EBFD04F06C
:10377000040018B10320FDF7FBFD02E00320FDF774
:10378000E1FD2B480068281A64284AD304F00100A0
:10379000C8B12848007800F00100A0B926480668A2
:1037A00001460968C81DC11700EB5171C910A0EB93
:1037B000C101214A1160104601683046FFF7ACFE96
:1037C0001B48056000BF04F00200C8B1194800782A
:1037D00000F00200A0B91848066801460968481CB4
:1037E000C11700EB5171C910A0EBC101124A116061
:1037F000104601683046FFF78FFE0D48056000BF98
:1038000004F0040068B10B48007800F0040040B9EF
:103810000A49094A126801EBC20148688047044816
:103820000560044804600A2000F084F800BF84E7C3
:1038300014000010100000100C0000109000001088
:10384000FFF7CAFCFDF750FDFCF7D4FFFDF792FC33
:103850001948FDF7D7FA6FF07F40FDF7CBFAFCF778
:103860002DFFFF20FDF7D6FA14A200210846FCF731
:10387000ABFF0020FDF7CEFA15A218210020FCF7BF
:10388000A3FFFFF7A5FEFFF7FBFD00F05FF8174869
:1038900000F0BCF8164908600021164800F0E4F872
:1038A000154908600021154800F0DEF81449086049
:1038B00000F05EF800BFFEE74869000050756D70CB
:1038C00020436F6E74726F6C2053797374656D0052
:1038D000557365206A6F79737469636B20746F2008
:1038E0006E617669676174650000000074500000C5
:1038F0000800001054500000000000106450000048
:103900000400001010B5FF2101A001F0BDF810BDAA
:103910004D61696E74656E616E6365204D6F64659F
:1039200000000000FFF7ACFD03E04FF47A7000F0F8
:1039300001F8FAE7EFF3058109B182207047DFF85B
:1039400008C000DF70470000ED4B0000EFF305807A
:1039500008B182207047EFF31480C00703D0DFF86E
:103960000CC000DF704701F04BB90000014C0000B3
:1039700088B0EFF3058010B1822008B07047EFF3F4
:10398000148010F00301134806D001291BD002292E
:1039900011D0032919D113E008A981F3098800780F
:1039A000C0070BD05FF0020080F31488BFF34F8F85
:1039B000BFF36F8F09E00078C00706D10320F3E75B
:1039C0000078C00701D0FF20D7E7DFF80CC000DF88
:1039D000D3E7000080690000714C0000EFF3058020
:1039E00008B100207047DFF808C000DF7047000012
:1039F000B94C0000EFF305820AB1FFF73FBEDFF8D4
:103A000008C000DF70470000154D0000EFF305818E
:103A100009B100207047EFF31481C90702D10449AE
:103A2000497819B1DFF80CC000DF704701F08FB999
:103A3000680000104F4D0000EFF3058109B18220AE
:103A40007047DFF808C000DF704700006B4D0000D2
:103A5000EFF305820AB182207047DFF808C000DF6B
:103A6000704700008D4D0000EFF305820AB1002081
:103A70007047EFF31482D20702D1044A52781AB188
:103A8000DFF80CC000DF704701F09EB9680000103D
:103A9000C94D0000DFF80CC000DFDFF80CC000DF0C
:103AA000FEE70000354E0000514E0000DFF804C074
:103AB00000DF7047894E0000094C4FF0FF35294662
:103AC0002068FFF797FF02460846102AF7D1FFF754
:103AD000EDFF0028F3D0024608469047EFE70000CC
:103AE00030000010012806D0022805D0032804D099
:103AF000042804D102E003E002E001E000E000BF9E
:103B000000BF00BFFEE700BFFEE7000007480168F6
:103B10004FF0E020416100218161072101610448EB
:103B2000016841F07F410160401770477C690000E7
:103B300020ED00E07047000002480068C0F380609C
:103B40007047000004ED00E04FF0E020806902497A
:103B50000968081A704700007C69000038B5002029
:103B60002F4A00905178107802230022FDF716FCAE
:103B700000202B4A0090D178907802230022FDF794
:103B80000DFC0020264A0090517910790223002272
:103B9000FDF704FC0020224A0090D179907902239D
:103BA0000022FDF7FBFB1E4AD17890780122FDF739
:103BB00035FB1B4A517810780122FDF705FB184AA6
:103BC000D17890780122FDF7FFFA154A51781078E4
:103BD0000022FDF7F9FA0121702000F09FFF01217A
:103BE000002000F09BFF0E4A517810780122FDF76B
:103BF000EBFA0B4A517810780022FDF7E5FA012123
:103C0000732000F08BFF0021084600F087FF044678
:103C1000034A517810780122FDF7D6FA204638BDC4
:103C20001800001000200B49496B01F4000109B98C
:103C300040F001000749496B01F0007109B940F0FB
:103C400002000449496B01F4801109B940F00400F5
:103C50007047000000C0092050E8001F31B10B6818
:103C600040E80032002AF7D108467047BFF32F8F93
:103C7000FAE710B568B161B10B3121F003020168B8
:103C800044680B1A1B1B934205D208460968002999
:103C9000F5D1002010BD210007D021180368C1E92B
:103CA0000032016001F1080010BD4260083010BD13
:103CB00070B50D46002812D04FF6FF71084C8842AF
:103CC00004D222680146104600F0AAFB2068457025
:103CD000044800F0DDF8BDE8704000F065BC70BD40
:103CE00070000010901600100F4810B50D49426882
:103CF0000E480B680068934204D00A60CB88421ECD
:103D00001A448A808A8880B282420AD100200860E0
:103D1000054800F0BDF80146BDE81040024800F03B
:103D2000A3BB10BD8400001090160010800000108E
:103D300070B5194DE86800282CD0A88A401EA882CA
:103D4000002621E0A06838B161684160606810B168
:103D5000A16881606660A6600F482146183800F0AF
:103D600083FBA08AA8826078042804D10B49E08AEA
:103D700009880844A08201206070E068E860E0687B
:103D800008B10561E6602661A88A002802D1EC68C6
:103D9000002CD7D170BD0000A816001080000010C4
:103DA00070B504000FD00D4DA178012628688278E7
:103DB00091420CD900F074FB286846702046BDE89B
:103DC000704000F0F1BB064800F062F8F7E766705B
:103DD0002146BDE87040024800F046BB700000106C
:103DE000901600100321FFF763BF000010B50446D2
:103DF000008B084320836278618B062A18D0052A3D
:103E000019D1084217D001EA000262838843208357
:103E1000204600F070FB01206070628B0821204674
:103E200000F065FB2146BDE81040034800F01CBBD4
:103E300031EA0002EAD010BD90160010814202D390
:103E400042688A4201D80120704702680A60BFF3C5
:103E50005F8F50E8003F0A689A42F6D140E80012AE
:103E6000002AF2D10020704768B161B10022083900
:103E700002E00246006830B18842FAD12AB10068F7
:103E80001060002070470120704700214160F8E772
:103E90000146406842684A600B780022022B05D038
:103EA000012B03D0032B01D04260704743680BB154
:103EB0009960426082607047810700D0002070479F
:103EC00070B5044600201546207001226270A17072
:103ED00084F824106060A060E06020612062A0820D
:103EE000E0822083608384F82500E08C18B90548BF
:103EF000FFF7B2FEE06229462046BDE8704000F0C0
:103F00001DB80000C001001008B1082901D201202D
:103F100070470144091F002201600A604260104698
:103F20007047000003480021016003490988C180EF
:103F300070470000840000107069000070B5C28CEA
:103F40001C4D930802D12A88C2F38D03C26A02EB8A
:103F50008302540700D5121F4FF0807442E9021407
:103F600000242646B2F1400242F82460641C0E2C64
:103F7000FAD3C4691462826201632968C90014D546
:103F8000112B12D94FF0FF31103B11EB53014FF0C1
:103F9000CC3305D042F8043C42F8083D491EF9D123
:103FA000C16A121F8A4200D91360C06A02490160C7
:103FB00070BD00006C690000A52E5AE2C18980899D
:103FC000081A70470122027000224270827042601B
:103FD00002814281103982818908C18170470000C5
:103FE0002DE9F041044640680E464FF0000804F108
:103FF0000C05E8B36078012701283ED0022813D0D1
:1040000003285CD10846FFF727FE050057D020465D
:10401000FFF73EFF0446294600F066FA6770204627
:1040200000F069FA214621E02046FFF731FF0646FD
:10403000002100F059FA2189F06904EB810108613F
:10404000D5E85F0F401C81B2C5E8501F0028F7D1AA
:104050002089401C80B22081E189884201D1A4F8E6
:1040600008807770304600F046FA3146174800E085
:104070000CE0BDE8F04100F0F7B92046FFF708FF7B
:1040800004463246102100F032FAC7E7A089E189E0
:10409000884216D2208904EB80000661D5E85F0FC4
:1040A000401C81B2C5E8501F0028F7D12089401C70
:1040B00080B22081E189884201D1A4F80880BDE85E
:1040C000F081BDE8F0410320FFF70CBD9016001011
:1040D00070B50446808915460026C0B3608904EB9C
:1040E0008000006908606089401C80B26081E189BD
:1040F000884200D16681606810B1607802280BD0D8
:1041000014F10C04D4E85F0F401E81B2C4E8501FC4
:104110000028F7D1002070BD2046FFF7B9FE054604
:10412000002100F0E1F92189E86904EB81010861CF
:104130002089401C80B22081E189884200D12681FB
:10414000284600F0D8F92846FFF72AFEE2E7FFE705
:104150003DB10B48626801682AB1204600F084F93D
:1041600008E0012070BD616001684E6000688460F5
:104170000120607008212846FFF79AFDF1E7000052
:1041800070000010002814D0411C13D00C4A4FF6C8
:10419000FE7190420CD800EB4002C2EBC0120948FD
:1041A000036803EBC202521EB2FBF3F0884204D94B
:1041B000084670474FF6FF70704780B270470000A6
:1041C00000093D008C69000003210170002141803D
:1041D00041608160C16070472DE9F041044640882C
:1041E00020B1314DA1682A68914202D0FF20BDE87C
:1041F000F081401E0004000C608053D12968086AD9
:10420000A04209D1E068086208E0C268A24202D177
:10421000E268C26002E010460028F6D191F824005E
:104220000A6A06E053681BB19B78834200D918469E
:10423000D268002AF6D18870DFF8708061680126A4
:1042400011B32046FFF724FE0746002100F04CF989
:10425000384600F050F96680A760386AE0603C623A
:104260002968D8F804008A788078824201D33846D9
:1042700016E00E4800F0F8F839460C4800F0F4F863
:10428000286846707E700AE0D8F804108A78296899
:10429000824207D9054800F0E7F8286846700020F8
:1042A000FFF77EFD0020A2E77000001090160010BE
:1042B00070B51C4D0E4604464188286861B1A2685D
:1042C000824210D1A1F57F40FF3803D0491C6180A4
:1042D000002070BDFF2070BDA060016AE160046233
:1042E00001206080F4E776B191788078814203D232
:1042F0009070A06800F0DEF8606830B12046296850
:1043000000F0B2F808E0012070BD286860602968FC
:10431000002048602868846009213046FFF7C8FC07
:10432000F1E700007000001070B51B480121026821
:104330005170006800F0B4F8184D6C7818E000BFB8
:1043400005EBC40148680278EAB1012A20D000F0E8
:10435000FFF8E878641C844200D100240F48801CD8
:10436000D0E84F1F491EC9B2C0E8421F002AF7D14A
:10437000A8780028E4D16C700948FFF789FDBDE8F2
:10438000704000F011B9098989B2FFF72FFDE0E70D
:104390008968FFF725FEDCE770000010B8120010F6
:1043A000901600100548017811B101214170704745
:1043B00003494FF0805008607047000078000010FB
:1043C00004ED00E0F0B4154DAB1CEE784FEA0507A4
:1043D000D3E84F2FB24202D1BFF32F8F11E0521C0E
:1043E000D4B2C3E8424F002AF2D100BFD7E84F2F22
:1043F000541CB44200D10024E4B2C7E8434F002B60
:10440000F4D1EB78934205D905EBC202C2E9010170
:10441000F0BC7047F0BC0220FFF764BBB81200107C
:10442000104A10B5D368ABB113469B8A03E08CB138
:104430002246A48A2344D4688B42F8D3C460D06057
:104440000261C46804B12061591A8182908A401ABD
:10445000908210BD0024C460D060C91A02619182AC
:10446000848210BDA816001030B502780023022AFD
:1044700003D0012A01D0032A00D101238C7800E067
:104480001046426812B19578A542F9D24A6041605F
:104490001BB102B19160886030BD0020FBE70000D5
:1044A00003494A6842600022826048607047000009
:1044B0009016001010B5836804462BB96078012867
:1044C0000ED1084B03E09B6818780028FBD02046EB
:1044D00000F026F82146BDE810401846FFF7C4BF9B
:1044E00010BD000090160010806A01627047806A5B
:1044F000C0E90812704710B5016900290ED0C268E2
:10450000CA60C36800223BB18B8A848A23448B82B1
:10451000C3681961C26000E08A82026110BD0000B8
:10452000816839B142684A604168002901D08068D9
:1045300088607047054906E04A68824202D14068B7
:104540004860704711460029F6D170479016001058
:1045500010B5416881B1FFF79BFC0446FFF7CBFF24
:104560000120607001462046FFF7BEFF2146BDE8EE
:1045700010400348FFF778BF4188491C418010BDB7
:104580009016001006480068D0E90A10814203D353
:1045900000680449884202D00120FFF7A3BA70479F
:1045A00070000010A52E5AE20749022248604270AE
:1045B000064A1278002A05D006C98A4202D0C0787D
:1045C000FEF73EBF70470000700000108C00001026
:1045D00070B5FEF70DFF00200446204A204902E096
:1045E00042F82040401C0B889842F9D31D483422E1
:1045F00001881D48FEF7BAFE1C48008880B240F0D2
:1046000000421B4801681B48FEF7B0FE1A4808220A
:1046100001881A480068FEF7A9FE194DFF20194AC3
:10462000E870EC8400212846FFF74AFC1648042174
:104630000170446015480170C460046184821448AC
:1046400015490560022068701248047044700978AA
:10465000C170BDE87040FFF765BC00003C1300105E
:104660006869000094690000E00000106C690000B7
:1046700098690000C0010010BC69000038000010FB
:104680005C160010073B000090160010A8160010E2
:1046900070000010B8120010A06900001B4810B58F
:1046A000016841F47F01016000684FF07F4101EA39
:1046B00000201649C0431439B0FA80F00968C0F1EF
:1046C0000800C1F30221814200D3481C0F49091F91
:1046D0000B686FF08072824063F317020A60FFF785
:1046E00015FA0B49002808600EDB00F1E021FF22DB
:1046F00081F8002400F01F02012191404009800050
:1047000000F1E020C0F8001110BD000020ED00E035
:104710007C0000100C4810B502680121517000683F
:10472000FFF7BEFEFFF7E0FA08480168491C016088
:10473000FFF7FEFA00F0B4FB0548FFF7A9FBBDE860
:104740001040FFF731BF0000700000108000001023
:1047500090160010002805D0810702D101780029A9
:1047600000D000207047000030B50B4C0023626879
:1047700005E095688D4204D813461268491B002A4B
:10478000F7D10260816012B19568691A91600BB12E
:10479000186030BD606030BD680000102DE9F04148
:1047A0001E46174680460D4611F0FF0F00D14D1CE6
:1047B0001848FFF751FA041E16D0280AE762E08471
:1047C000E9B242462046E661FFF77AFB012512482E
:1047D000124905E000EB850252F8042C32B16D1C41
:1047E0000A889542F6D90020BDE8F081002DFAD064
:1047F00000EB850040F8044C0948E570007818B1DA
:1048000001212046FEF70CFE2046FFF7C9FA284694
:10481000EAE70000E00000103C13001068690000A7
:104820008C0000102DE9F05F584DDFF85891DFF84B
:10483000588129684FF0010A002618B1CA78AB46A2
:10484000824243D14E70FBF7A8FC29688862FFF7CB
:1048500099FE2868046A1FE06068C0B12046FFF72F
:1048600017FB07460021FFF73FFE3846FFF743FEE0
:1048700087F801A039464648FFF7F6FDE168A4F83D
:1048800002A0A760386AE0603C620C4604E0E06881
:104890006680A660E6600446002CDDD12868C278F8
:1048A00008EB820141F8046CC16A3A48FFF7C6FA86
:1048B0002868C66299F8001011B10021FEF7B0FD1A
:1048C00035482968FFF7BAFA2E6056E0334909885F
:1048D00088420CD808EB800858F8045C3DB12846A3
:1048E000FFF71EFE2846FFF706FE2C6A22E0FF2097
:1048F000BDE8F09F6068C0B12046FFF7C9FA0746DF
:104900000021FFF7F1FD3846FFF7F5FD87F801A01C
:1049100039461F48FFF7A8FDE168A4F802A0A76088
:10492000386AE0603C620C4604E0E0686680A6609D
:10493000E6600446002CDDD148F8046C1548E96AAD
:10494000FFF77CFAEE6299F8000018B100212846C2
:10495000FEF766FD29461048FFF770FA0C48DBF8B1
:10496000001040688B7882789A4209D981F801A0BA
:104970000748DBF80010FFF777FD0020FFF710FA7B
:104980000020B5E78C0000103C13001070000010F0
:1049900090160010C0010010E000001068690000CF
:1049A00070B51A4D80B11A4A128890421FD8194A20
:1049B00002EB800050F8044CCCB1A17084F82410B4
:1049C0002868A04205D014E028688170286880F823
:1049D0002410114840688078884215D90E4829680B
:1049E000FFF742FD29680120487000200AE0FF20FF
:1049F00070BD2046FFF75EFD6078012804D10648AF
:104A0000FFF746FAFFF7CCF9002070BD70000010E8
:104A1000686900003C1300109016001002480068FE
:104A2000002800D0C07870477000001010B5FF213A
:104A300001A000F029F810BD53657420416C61722B
:104A40006D205468726573686F6C640010B5FF2147
:104A500001A000F019F810BD5365742050756D70F9
:104A6000204475726174696F6E00000010B5FF21FB
:104A700001A000F009F810BD5365742050756D70E9
:104A8000205370656564000070B504460D464FF014
:104A9000FF310F480068FEF7DBFF6FF07F40FCF747
:104AA000A9F96FF07F40FCF7B5F90AA218210020A0
:104AB000FBF78AFE2846FCF7ADF9224618210020B4
:104AC000FBF782FE02480068FEF7B6FF70BD0000EB
:104AD000080000102020202020202020202020203E
:104AE0002020202020202020202020200000000046
:104AF00001B582B00848012201A9C36902A89847FC
:104B000000BF0549886A8047009000F00100002836
:104B1000F7D19DF804000EBD8C6A00002DE9F0412C
:104B200006460D460027012D01D1012300E0002398
:104B30001A461B4BD9799879FCF770FB07242AE0B9
:104B4000174AD17890780022FCF73EFB0120FEF74F
:104B50007FFC012D0DD10123A34033400BB1012374
:104B600000E000231A460E4BD9799879FCF72CFB0C
:104B700007E00B4AD1799079FCF716FBA040384347
:104B8000C7B2074AD17890780122FCF71DFB0120BB
:104B9000FEF75EFC641E002CD2DA3846BDE8F081D8
:104BA0001800001010B54FF47F4103A0FFF76CFF11
:104BB0000020FCF7DDFB10BD50756D702053746153
:104BC000727465640000000010B54FF47F0103A00B
:104BD000FFF75AFF0020FCF7B5FB10BD50756D7054
:104BE0002053746F707065640000000010B50028D9
:104BF00004D0FFF7C7FAFFF7F5F8402010BD00001A
:104C000010B5134C207860B91248400705D11248FE
:104C100001681048FFF778F908B1852010BDFFF74B
:104C2000D7FC0E49FF2009688870207858B9002108
:104C30000B4800F05DF80B49086000210A4800F0BD
:104C4000C3F80A490860012020700020607010BD80
:104C500068000010D00D00109C690000700000106A
:104C6000B469000030000010A46900002C0000109E
:104C700070B50F4D687808B1002070BD0D4C2068EC
:104C800090F824100020FFF78BFE2068C178FF29E0
:104C900003D1816A203181F30988616811B96060AC
:104CA00000202060FFF7FAFC01206870E4E70000B4
:104CB000680000107000001070B5FEF745FF044654
:104CC000FEF73AFF0849094E0D686D1C48B1FEF722
:104CD0003BFFA04200D204463068401C05FB004068
:104CE00070BD3068FAE700007C69000080000010A9
:104CF00010B5040005D0216819B1606808B10278C8
:104D00000AB1002010BD8900103189B2FFF75AF9AD
:104D1000606810BD3EB504000D464FF0800012D013
:104D2000217801290FD12846FFF72CFA02462046A8
:104D300001A9FFF7CDF9012801D0102003E00DB142
:104D4000402000E00020DDE9011203B030BD10B5C5
:104D5000002804D004680CB1207808B1002010BDF0
:104D60002046FFF731FA204610BD10B5FFF7A4F832
:104D700010B10178032901D0802010BDFFF72CFA73
:104D8000FF2801D0002010BD812010BD70B50D4658
:104D9000FFF792F8040002D02078032801D0802089
:104DA00070BD2846FFF7EEF901462046FFF780FA6E
:104DB000012803D0FF2804D0002070BD0DB1C12010
:104DC00070BD812070BD000070B50E46040029D072
:104DD000206838B3606810F1030F23DB032821DC5F
:104DE000E16829B11048FEF744FF05001AD000E041
:104DF00000256068E168001D40EA012133462A462B
:104E00002068FFF7CBFC40B1084901EB800008495E
:104E100050F8040C826A516370BD1DB129460248E6
:104E2000FFF722F8002070BDD00D00103C130010D9
:104E3000953A000010B5FFF7F1FD002804D00349B2
:104E400001EB800050F8040C10BD00003C13001072
:104E500010B5FFF77FFC18B1C18C19B1C46A02E02C
:104E6000802010BD0024C078FFF7DCFCFF2806D0AE
:104E70001CB121460348FEF7F7FF002010BD81203A
:104E800010BD0000D00D001010B5FFF715F820B1CF
:104E900041690A680169104610BD0020014610BD35
:104EA0002DE9F041134E7468002C1CD0A068124FFD
:104EB000401E4FF00108A06012E02546246874608F
:104EC000002229463868FEF7EEFB10B10420FEF7F9
:104ED00009FE6879012808D085F80480002C02D0EA
:104EE000A0680028E9D0BDE8F0812846E968FFF70E
:104EF0003BFCF3E7680000103000001010B5FF2104
:104F000001A0FFF7C1FD10BD56696577696E672086
:104F100053746174757300001CB504461048012178
:104F2000426A1320904770208DF8040000208DF80D
:104F300005008DF806400A480321426901A8904700
:104F400000BF0749886A8047009000F001000028F0
:104F5000F7D103480021426A132090471CBD00008E
:104F60008C6A00001CB5044620128DF80400E0B2E3
:104F70008DF8050007480221426901A8904700BF4B
:104F80000449886A8047009000F001000028F7D1AA
:104F90001CBD00008C6A000010B504480121426A63
:104FA000132090477220FFF7A3FD10BD8C6A00000C
:104FB00010B503480021426A1320904710BD00003D
:104FC0008C6A00007CB504460D4670208DF8040004
:104FD00020128DF80500E0B28DF806001C48012172
:104FE000426A132090471A480321426901A890475A
:104FF00000BF1749886A8047009000F00100002830
:10500000F7D113480021426A1320904772208DF88F
:10501000040028128DF80500E8B28DF806000C484F
:105020000121426A1320904709480321426901A8DF
:10503000904700BF0649886A8047009000F0010051
:105040000028F7D102480021426A132090477CBD16
:105050008C6A0000393700000000000001000000E9
:1050600000000000253900000000000001000000E1
:1050700000000000D0000010FC6A0000A54B0000FA
:10508000F06A0000C94B0000B86A00006D4A0000D9
:10509000E06A00004D4A0000086B0000FD4E000071
:1050A000C46A00002D4A0000D06A000005390000E3
:1050B000146B0000B135000000000000000000008B
:1050C00004040404040004000A0A0A0000000000AA
:1050D0000A0A1F0A1F0A0A00041E050E140F040004
:1050E0000313080402191800020505021509160029
:1050F0000C0C040200000000080402020204080074
:1051000002040808080402000004150E0E1504002D
:105110000004041F04040000000000000C0C040242
:105120000000001F0000000000000000000C0C0048
:1051300000100804020100000E11131519110E00D1
:105140000406040404040E000E11100E01011F00D9
:105150001F10080C10110E00080C0A091F08080087
:105160001F010F1010110E001C02010F11110E0073
:105170001F101008040201000E11110E11110E0073
:105180000E11111E100807000000040004000000AA
:1051900000000400040402001008040204081000C7
:1051A00000001F001F000000020408100804020095
:1051B0000E11100C040004000E11151D0D011E002F
:1051C000040A11111F1111000F11110F11110F00FD
:1051D0000E11010101110E000F11111111110F001B
:1051E0001F01010F01011F001F01010F010101003B
:1051F0001E11010119111E001111111F11111100B1
:105200000E04040404040E001C0808080809060023
:1052100011090503050911000101010101011F0028
:10522000111B15151511110011111315191111006C
:105230000E11111111110E000F11110F01010100BA
:105240000E111111150916000F11110F050911008A
:105250000E11010E10110E001F15040404040400A9
:105260001111111111110E0011111111110A040067
:105270001111111515150A0011110A040A11110056
:1052800011110A04040404001F10080E02011F007B
:105290001E02020202021E000001020408100000A9
:1052A0001E10101010101E00040A11000000000053
:1052B0000000000000001F000606040800000000B7
:1052C000000006080E091E0001010D1311130D0048
:1052D00000000E1101110E00101016191119160000
:1052E00000000E111F010E000814040E0404040037
:1052F00000000E191916100E01010D1311111100E5
:105300000400060404040E0008000808080906004A
:1053100001010905030509000604040404040E0044
:1053200000000B151515150000000D1311111100CB
:1053300000000E1111110E0000000D13130D0101DC
:10534000000016191916101000000D1301010100BC
:1053500000001E010E100F0004041F0404140800B6
:10536000000011111119160000001111110A04009A
:105370000000111115150A000000110A040A11009D
:10538000000011111E10110E00001F0804021F0062
:1053900008040402040408000404040004040400D3
:1053A00002040408040402000215080000000000C2
:1053B000000000000000000000000C12120C0000B1
:1053C00000000C1E1E0C000000001E12121E000029
:1053D00000001E1E1E1E000000000C0C121E00000D
:1053E00000000C0C1E1E000000001E120C0C000021
:1053F00000001E1E0C0C00000000181616180000FD
:105400000000181E1E1800000000061A1A060000F0
:105410000000061E1E06000000000C12120C000008
:1054200000000C1E1E0C000000001E12121E0000C8
:1054300000001E1E1E1E00000000000000000000F4
:10544000000000000000000000000000000000005C
:10545000000000000000000000000000000000004C
:1054600000000000000000000000800180018001B9
:105470008001800180018001800180018001800124
:105480008001800100000000800180010000000018
:10549000000000000000000000000000CC00CC0074
:1054A000CC00CC00CC00CC000000000000000000CC
:1054B00000000000000000000000000000000000EC
:1054C00000000000000000000000000000000000DC
:1054D00000000000600C600C600C30063006FE1FFF
:1054E000FE1F300638071803FE1FFE1F180318039F
:1054F0008C018C018C01000000008000E003F80F9B
:105500009C0E8C1C8C188C009800F801E007800E13
:10551000801C8C188C189C18B80CF00FE0038000CD
:1055200080000000000000000000000000000E18D5
:105530001B0C110C11061106110311039B018E01A6
:10554000C038C06C60446044304430441844186C27
:105550000C380000000000000000E001F0033807F4
:10556000180618063003F001F000F8009C310E33E5
:10557000061E061C061C063FFC73F02100000000FE
:105580000000000000000000000000000C000C0003
:105590000C000C000C000C000000000000000000DB
:1055A00000000000000000000000000000000000FB
:1055B0000000000000000000000000020003800165
:1055C000C000C000600060003000300030003000DB
:1055D000300030003000300060006000C000C000CB
:1055E0008001000300020000000020006000C000F5
:1055F000800180010003000300060006000600068B
:10560000000600060006000600030003800180017A
:10561000C00060002000000000000000000000004A
:1056200000000000C000C000D806F807E001300309
:10563000380700000000000000000000000000002B
:10564000000000000000000000000000000000005A
:105650000000000080018001800180018001FC3F8A
:10566000FC3F80018001800180018001000000007A
:10567000000000000000000000000000000000002A
:10568000000000000000000000000000000000001A
:105690000000000000000000000080018001000107
:1056A0000001800000000000000000000000000079
:1056B00000000000000000000000000000000000EA
:1056C000E007E0070000000000000000000000000C
:1056D00000000000000000000000000000000000CA
:1056E00000000000000000000000000000000000BA
:1056F00000000000000000000000C000C00000002A
:1057000000000000000000000000000C000C00067B
:1057100000060006000300030003800380018001EF
:105720008001C000C000C0006000600000000000F8
:1057300000000000000000000000E003F007380E49
:10574000180C0C180C180C180C180C180C180C1839
:105750000C180C18180C380EF007E00300000000BD
:105760000000000000000000000000018001C001F6
:10577000F001980188018001800180018001800191
:105780008001800180018001800180010000000013
:1057900000000000000000000000E003F80F180CFB
:1057A0000C180C1800180018000C000600038001EB
:1057B000C000600030001800FC1FFC1F000000004B
:1057C00000000000000000000000E001F807180ED3
:1057D0000C0C0C0C000C0006C003C007000C0018D9
:1057E00000180C180C18180CF807E0030000000053
:1057F00000000000000000000000000C000E000F80
:10580000000F800DC00C600C600C300C180C0C0CE0
:10581000FC3FFC3F000C000C000C000C00000000E2
:1058200000000000000000000000F80FF80F180052
:1058300018000C00EC03FC071C0E001C00180018DC
:1058400000180C181C0C180EF807E00300000000EC
:1058500000000000000000000000C007F00F381C2E
:10586000181818000C00CC03EC0F3C0E1C1C0C1874
:105870000C180C18181C380EF007E003000000008C
:1058800000000000000000000000FC1FFC1F000CD6
:1058900000060006000380038001C001C000E00094
:1058A0006000600070003000300030000000000038
:1058B00000000000000000000000E003F007380EC8
:1058C000180C180C180C3806F007F007180C0C18F8
:1058D0000C180C180C18380CF80FE003000000002E
:1058E00000000000000000000000E003F007380E98
:1058F0001C0C0C180C180C181C1C381EF81BE0197A
:105900000018000C000C1C0EF807F001000000004D
:105910000000000000000000000000000000000087
:105920000000000080018001000000000000000075
:105930000000000000000000800180010000000065
:105940000000000000000000000000000000000057
:105950000000000080018001000000000000000045
:105960000000000000000000800180010001000133
:1059700080000000000000000000000000000000A7
:1059800000000000000000000010001C800FE00379
:10599000F8001800F800E003800F001C0010000061
:1059A00000000000000000000000000000000000F7
:1059B0000000000000000000F81F000000000000D0
:1059C000F81F0000000000000000000000000000C0
:1059D00000000000000000000000000000000000C7
:1059E000000000000000000008003800F001C007BF
:1059F000001F0018001FC007F00138000800000059
:105A000000000000000000000000E003F80F180C88
:105A10000C180C180018000C000600038001C000D0
:105A2000C000C00000000000C000C0000000000076
:105A3000000000000000000000000000E00718184F
:105A40000420C229224A1144094409440944092274
:105A50001113E20C024004201818E00700000000B7
:105A60000000000000000000000080038003C0066A
:105A7000C006C006600C600C301830183018F83FB3
:105A8000F83F1C700C600C6006C006C000000000EF
:105A900000000000000000000000FC03FC0F0C0CE4
:105AA0000C180C180C180C0CFC07FC0F0C180C3004
:105AB0000C300C300C300C18FC1FFC0700000000F0
:105AC00000000000000000000000C007F01F383890
:105AD0001C300C700660060006000600060006007A
